{
  "contractName": "MyContract",
  "abi": [
    {
      "inputs": [
        {
          "internalType": "uint256",
          "name": "",
          "type": "uint256"
        }
      ],
      "name": "dataRecords",
      "outputs": [
        {
          "internalType": "uint256",
          "name": "id",
          "type": "uint256"
        },
        {
          "internalType": "string",
          "name": "data",
          "type": "string"
        },
        {
          "internalType": "uint256",
          "name": "timestamp",
          "type": "uint256"
        }
      ],
      "stateMutability": "view",
      "type": "function",
      "constant": true
    },
    {
      "inputs": [
        {
          "internalType": "uint256",
          "name": "_id",
          "type": "uint256"
        },
        {
          "internalType": "string",
          "name": "_data",
          "type": "string"
        }
      ],
      "name": "storeData",
      "outputs": [],
      "stateMutability": "nonpayable",
      "type": "function"
    },
    {
      "inputs": [
        {
          "internalType": "uint256",
          "name": "_index",
          "type": "uint256"
        }
      ],
      "name": "getData",
      "outputs": [
        {
          "internalType": "uint256",
          "name": "",
          "type": "uint256"
        },
        {
          "internalType": "string",
          "name": "",
          "type": "string"
        },
        {
          "internalType": "uint256",
          "name": "",
          "type": "uint256"
        }
      ],
      "stateMutability": "view",
      "type": "function",
      "constant": true
    },
    {
      "inputs": [],
      "name": "getRecordsCount",
      "outputs": [
        {
          "internalType": "uint256",
          "name": "",
          "type": "uint256"
        }
      ],
      "stateMutability": "view",
      "type": "function",
      "constant": true
    }
  ],
  "bytecode": "0x608060405234801561001057600080fd5b5061074e806100206000396000f3fe608060405234801561001057600080fd5b506004361061004c5760003560e01c80630178fe3f1461005157806349dc098414610083578063505158bb1461009f578063c8592e0b146100bd575b600080fd5b61006b60048036038101906100669190610479565b6100ef565b60405161007a93929190610559565b60405180910390f35b61009d600480360381019061009891906104a2565b61020e565b005b6100a761028b565b6040516100b4919061053e565b60405180910390f35b6100d760048036038101906100d29190610479565b610297565b6040516100e693929190610559565b60405180910390f35b6000606060008060008581548110610130577f4e487b7100000000000000000000000000000000000000000000000000000000600052603260045260246000fd5b90600052602060002090600302016040518060600160405290816000820154815260200160018201805461016390610660565b80601f016020809104026020016040519081016040528092919081815260200182805461018f90610660565b80156101dc5780601f106101b1576101008083540402835291602001916101dc565b820191906000526020600020905b8154815290600101906020018083116101bf57829003601f168201915b505050505081526020016002820154815250509050806000015181602001518260400151935093509350509193909250565b6000604051806060016040528084815260200183815260200142815250908060018154018082558091505060019003906000526020600020906003020160009091909190915060008201518160000155602082015181600101908051906020019061027a929190610359565b506040820151816002015550505050565b60008080549050905090565b600081815481106102a757600080fd5b90600052602060002090600302016000915090508060000154908060010180546102d090610660565b80601f01602080910402602001604051908101604052809291908181526020018280546102fc90610660565b80156103495780601f1061031e57610100808354040283529160200191610349565b820191906000526020600020905b81548152906001019060200180831161032c57829003601f168201915b5050505050908060020154905083565b82805461036590610660565b90600052602060002090601f01602090048101928261038757600085556103ce565b82601f106103a057805160ff19168380011785556103ce565b828001600101855582156103ce579182015b828111156103cd5782518255916020019190600101906103b2565b5b5090506103db91906103df565b5090565b5b808211156103f85760008160009055506001016103e0565b5090565b600061040f61040a846105c8565b610597565b90508281526020810184848401111561042757600080fd5b61043284828561061e565b509392505050565b600082601f83011261044b57600080fd5b813561045b8482602086016103fc565b91505092915050565b60008135905061047381610701565b92915050565b60006020828403121561048b57600080fd5b600061049984828501610464565b91505092915050565b600080604083850312156104b557600080fd5b60006104c385828601610464565b925050602083013567ffffffffffffffff8111156104e057600080fd5b6104ec8582860161043a565b9150509250929050565b6000610501826105f8565b61050b8185610603565b935061051b81856020860161062d565b610524816106f0565b840191505092915050565b61053881610614565b82525050565b6000602082019050610553600083018461052f565b92915050565b600060608201905061056e600083018661052f565b818103602083015261058081856104f6565b905061058f604083018461052f565b949350505050565b6000604051905081810181811067ffffffffffffffff821117156105be576105bd6106c1565b5b8060405250919050565b600067ffffffffffffffff8211156105e3576105e26106c1565b5b601f19601f8301169050602081019050919050565b600081519050919050565b600082825260208201905092915050565b6000819050919050565b82818337600083830152505050565b60005b8381101561064b578082015181840152602081019050610630565b8381111561065a576000848401525b50505050565b6000600282049050600182168061067857607f821691505b6020821081141561068c5761068b610692565b5b50919050565b7f4e487b7100000000000000000000000000000000000000000000000000000000600052602260045260246000fd5b7f4e487b7100000000000000000000000000000000000000000000000000000000600052604160045260246000fd5b6000601f19601f8301169050919050565b61070a81610614565b811461071557600080fd5b5056fea26469706673582212203edc837d2b386ba2d2e8486451f7914045df6bcf0b406853ac760eade904232d64736f6c63430008000033",
  "immutableReferences": {},
  "source": "// MyContract.sol\r\npragma solidity ^0.8.0;\r\n\r\ncontract MyContract {\r\n    struct DataRecord {\r\n        uint id;\r\n        string data;\r\n        uint timestamp;\r\n    }\r\n\r\n    DataRecord[] public dataRecords;\r\n\r\n    function storeData(uint _id, string memory _data) public {\r\n        dataRecords.push(DataRecord(_id, _data, block.timestamp));\r\n    }\r\n\r\n    function getData(uint _index) public view returns (uint, string memory, uint) {\r\n        DataRecord memory record = dataRecords[_index];\r\n        return (record.id, record.data, record.timestamp);\r\n    }\r\n\r\n    function getRecordsCount() public view returns (uint) {\r\n        return dataRecords.length;\r\n    }\r\n}\r\n",
  "sourcePath": "D:\\Downloads\\PyCharm 2024.1.1\\pythonProjectContr\\contracts\\MyContract.sol",
  "compiler": {
    "name": "solc",
    "version": "0.8.0+commit.c7dfd78e.Emscripten.clang"
  },
  "schemaVersion": "3.4.16",
  "updatedAt": "2024-05-22T17:04:11.897Z",
  "networkType": "ethereum",
  "devdoc": {
    "kind": "dev",
    "methods": {},
    "version": 1
  },
  "userdoc": {
    "kind": "user",
    "methods": {},
    "version": 1
  }
}